:020000040800F2
:1000000000280020B1170008211700082317000856
:10001000251700082717000829170008000000000E
:100020000000000000000000000000007153000804
:100030002B1700080000000001540008C539000813
:10004000F9170008F9170008F9170008F917000850
:10005000F9170008F9170008F9170008F917000840
:100060002D17000833170008F9170008F9170008C2
:10007000F9170008F9170008F9170008F917000820
:10008000F9170008F917000839170008F9170008D0
:10009000F9170008F9170008F9170008F917000800
:1000A000F9170008F9170008F9170008F9170008F0
:1000B000F91700085517000800000000F91700089C
:1000C000F91700080000000000000000F917000800
:1000D0000000000061170008F91700080000000088
:1000E000F9170008F9170008F917000800000000C8
:1000F0000000000000000000000000000000000000
:0C01000000000000000000005FF808F1A3
:1001100010B5054C237833B9044B13B10448AFF341
:1001200000800123237010BD7C000020000000002F
:10013000A461000808B5034B1BB103490348AFF3A2
:10014000008008BD0000000080000020A4610008BD
:1001500008B5012003F066FDFBE7000008B5154D6A
:10016000154C284601F0B0FC4FF4967003F05AFD90
:10017000124801F0A9FC0A220021012003F004FD2D
:100180002378012B0DD10E4A13780133DBB2052BF6
:1001900008BF0023137000230120237003F0CDFC5F
:1001A000DFE7022BF7D1074A13780133DBB2022BCA
:1001B000EEE700BFDC04002033050020AC04002083
:1001C000390500203805002008B5064C064D074EBD
:1001D00023780120012B02BF2A6833685A6303F099
:1001E00021FDF5E73905002034050020100400202A
:1001F00030B590B1094B0A4CB3FBF0F0431E1B0C19
:100200005A1CB0FBF2F02268414393626423B1FBB5
:10021000F3F1451ED562E560916330BD006CDC02F0
:10022000100400202DE9F04FA1B001F043F8C74BB6
:1002300014AA1D4603F128061446186859680833A5
:1002400003C4B3422246F7D118681B79206023719A
:10025000BF4B0BAA03F120061446186859680833EF
:1002600003C4B3422246F7D1286D0025AB46198856
:100270009B782180A370B74B05AA59680C3303C241
:1002800053F8040C08AC106093E80700B24B84E804
:100290000700B24EB24C0493BBF1000F40F02C8229
:1002A0003378012B00D12370AE4B1A7852B12278EB
:1002B000032A07D0AC4A1278012A0CBF42214121FF
:1002C000AA4A1170002764221F70A94BA9491B6814
:1002D00009685343A84ADFF8A4821268A848521A52
:1002E00093FBF2F34FF47A72C8F80030A54BA6499D
:1002F0001B6809685343A54A1268521A93FBF2F32C
:10030000A34AA4491360126805F046FAD8F8002001
:10031000A049A14805F040FA384600F08DFE4FF0A4
:1003200001085022394610461F23CDF8008000F006
:1003300039FF1422394610461F23CDF8008000F003
:1003400031FF1323384619461422CDF8008000F0FF
:1003500029FF924B924FD3F80090B9F1000F00F0B3
:10036000E4811621022000F017FF97E80E008D4867
:10037000CDF8008000F0FAFE2778002F49D1DFF891
:10038000E8A14FF002099AF800B0DFF81482BBF13F
:10039000020F98BF5D464946552000F0FDFE01233F
:1003A0009AF800000DF12C0C3844401BC0EBC00043
:1003B00000936044013798E80E0000F0D7FE09F181
:1003C0000A09032F5FFA89F9E5D1012205EB8507B8
:1003D0000BF101037F0003EB8303FFB25B0039469F
:1003E00003F0FE0350200092802200F021FFB91C90
:1003F000552001F0FE0100F0CFFE00239AF8000026
:100400000BAFC0EBC0000093384498E80E0000F03A
:10041000ADFE2378012B40F05581337803B923706A
:10042000DFF844814FF0020998F800304FF0000ADD
:10043000022B98BF1D465A4F4946162000F0ACFECD
:10044000012398F800000DF1500C5044401B00EBC4
:10045000C000009360440AF1010A97E80E0000F022
:1004600085FE09F10A09BAF1030F5FFA89F9E3D1B0
:10047000012298F8003005EB850901334FEA49095C
:1004800003EB83035FFA89F95B0003F0FE0349463F
:1004900014200092502200F0CBFE09F10201162038
:1004A00001F0FE0100F078FE002398F800000093B0
:1004B00000EBC00097E80E0014AF384400F056FE81
:1004C00098F80030002B00F08981274B1B78012B16
:1004D000039340F092806422254B26491B680968EB
:1004E0005343254A002712682F48521A93FBF2F310
:1004F000B3F1320854BF01234FF0FF330A2208FB47
:1005000003F393FBF2F102FB113398FBF2F227495C
:1005100005F042F94FF0FF3AB946254B254A7B4397
:10052000B2EB730F28BFCAF1000ABAF1FF3F4FF0D8
:1005300001014FF055000CBF09F1FF3909F1010924
:1005400000F02AFE039B1C48009337E0BC610008C2
:10055000E96100080C6200084100420038050020F3
:10056000080000200C0500203905002000000020B4
:10057000400500200C000020100000200400002096
:10058000290500203C050020140000201800002050
:100590003405002032620008240500201C050020DC
:1005A0003C63000824620008140500202F62000844
:1005B000CDCCCCCC99999919356200088E4B0ECBD5
:1005C00000F0D4FD0121632000F0E6FD039A8A4B80
:1005D00000928A480ECB00F0C9FD0A2308FB09F1FE
:1005E00091FBF3F107F1550014310122C9B2C0B2F9
:1005F000013700F047FD282F8FD1DFF8049299F8DA
:100600000030022B47D101275F22102310463946C4
:10061000009700F0C7FD7D22102310463946009751
:1006200000F0C0FD6E22102310463946009700F0FE
:10063000B9FD3B466E2239465F20009700F0B2FDBF
:1006400010237D2219466E20DFF8AC81009700F060
:10065000A9FD1621552000F09FFD98E80E0069487D
:10066000009700F083FD1621632000F095FD98E8C7
:100670000E006548009700F079FD644B20A91A68C8
:1006800099F8003001EB830353F8600C604B504342
:100690001968FFF7ADFD99F80030042B12D1012342
:1006A000009316237D2219465F2000F07BFD072171
:1006B000584A136899624EF65F21D1604EF6602267
:1006C000D9629A632378022B40F0B4800023237010
:1006D0002378052B0DD1337803B92370022119201B
:1006E00000F05AFD0122444B00924B480ECB00F023
:1006F0003DFD00F0ADFCCFE5BBF1010F05D1337836
:10070000012B7FF4D1AD0223CDE5BBF1020F40F008
:1007100099813378012B7FF4C7AD0323C3E5337888
:10072000012B7FF4C1AD0423BDE54946404600F0EE
:1007300033FD97E80E004120CDF8008000F0BAFCB0
:100740000B21022000F028FD97E80E004220CDF892
:10075000008000F0AFFC1621032000F01DFD2F4BA0
:100760002F480ECBCDF8008000F000FD0923DFF804
:10077000B4A0194614224846CDF8008000F012FDBE
:100780009AF80030412B12D10923142249464846D9
:10079000CDF8008000F04CFD4946404600F0FCFCDE
:1007A00097E80E002048CDF8009000F0DFFC9AF8A2
:1007B0000030422B7FF4E0AD012300931423092184
:1007C0001A46002000F034FD0B21022000F0E4FC6A
:1007D0000022094B009215480ECBCBE55527DFF8D8
:1007E0005080F8B2012218F8011B013700F04AFCD2
:1007F0007D2FF6D169E600BF3C6300081405002098
:100800003905002038620008290500203405002041
:100810000400002010040020486200083063000833
:1008200028620008000000202B6200082D620008EA
:1008300008630008032B54D1337803B92370884B25
:100840004FF001081A78874F012A88BF00224FF025
:1008500002014FF0160088BF1A7000F09DFC97E867
:100860000E00CDF8008004A800F080FCDFF8F091C5
:100870000C21162000F090FC97E80E00CDF80080C7
:100880000DF1120000F072FC99F80010502201EBFB
:10089000810101FA08F1C9B201F10A03142003F041
:1008A000FE03CDF8008000F0C3FC99F800106E4BF9
:1008B0001620196001EB810101FA08F1023101F003
:1008C000FE0100F069FC002399F80000009397E80E
:1008D0000E0004AF07EB400000F048FC634B83F8C8
:1008E00000802378042B7FF4F3AE0123604A136069
:1008F00033780BB9237013600921012000F04CFC00
:100900000123DFF85C81574F98F800000DF1140CBB
:1009100000930CEB800097E80E0000F027FC98F89D
:100920000030032B04BF002388F8003098F8003013
:10093000022B05D14F4A11682F29C4BF2F21116006
:1009400020A94C4A01EB8303DFF82C91126853F87D
:10095000600CD9F8001050434FF00108FFF748FC35
:100960001922142310460521CDF8008000F01AFC4E
:100970004B22142310460521CDF8008000F012FC14
:10098000D9F80020142302EBD27242FA08F219328D
:10099000D2B210460521CDF8008000F003FC0523FB
:1009A000D9F80020194602EBD27242FA08F2193245
:1009B0001920CDF80080D2B200F0F4FB1423D9F84E
:1009C0000000194600EBD07040FA08F019304B22B5
:1009D000CDF80080C0B200F0E5FB4146552000F0A4
:1009E000DBFB97E80E00CDF80080244800F0BEFB4A
:1009F0000921552000F0D0FB97E80E00CDF80080CB
:100A00001F4800F0B3FB1123802219465020CDF877
:100A1000008000F0C7FB1421552000F0BDFB97E8D3
:100A20000E00CDF80080174800F0A0FB14216920CB
:100A300000F0B2FB97E80E00CDF80080124800F0FD
:100A400095FB45E6BBF1030F3FF469AEBBF1040F24
:100A50007FF42AAC3378012B7FF426AC052322E403
:100A6000390500203C630008200500200C0500200B
:100A70001C05002034050020040000203B62000813
:100A800029050020446200082405002008B5184A02
:100A90000368934219D1174800F0E6FE164B174A37
:100AA0001860196810688842BCBF1968116019681D
:100AB000134A10688842C4BF1B6813604FF400518A
:100AC000BDE808400F4801F008BB0F4A9342F5D13A
:100AD0000E4800F0C9FE0E4B0E4A186019681068E7
:100AE0008842BCBF1968116019680B4AE1E700BF72
:100AF00000240140DC0400204005002010000020FC
:100B00000C0000200010014000280140AC0400202F
:100B10003C0500201800002014000020042809D102
:100B20000122074B1A700121064B1960064B186809
:100B300002F0C9BF0828F6D10222014BF2E700BF3C
:100B400033050020100500209800002030B595B036
:100B5000142200210CA804F059FE142200210DEBF0
:100B6000020004F053FE1022002101A804F04EFE02
:100B700001244FF480330225CDE90A43CDE9115316
:100B80004FF480130AA80E94139301F0A1FD08B14D
:100B900072B6FEE70F23CDE905354FF48063079069
:100BA000CDE90830214605A801F054FF08B172B61E
:100BB000FEE712234FF4004101934FF4800301A894
:100BC000CDE9031302F020F808B172B6FEE715B0C4
:100BD00030BD000080B59AB000F010FEFFF7B6FF00
:100BE0001022002112A804F011FEAC4B00249A69D7
:100BF0000225012742F010024FF400569A619A69CB
:100C00004FF4005102F010020192019A9A69A4482F
:100C100042F020029A619A6902F020020292029A3E
:100C20009A6942F004029A619A6902F004020392FE
:100C3000039A9A6942F008029A619B69002203F0C4
:100C400008030493049B01F043FA00224FF460412F
:100C5000944801F03DFA924812A9CDE91445CDE936
:100C6000126701F063F90C208F4B12A9CDE9120332
:100C70008E48149701F05AF9B0238C4812A9CDE997
:100C80001234149401F052F94023884812A9CDE996
:100C90001235159501F04AF94FF46043814812A9C5
:100CA000CDE91237CDE9144501F040F9224605217E
:100CB000082001F097F8082001F0C4F82246052129
:100CC000092001F08FF8092001F0BCF8784D794B2C
:100CD00028462B604FF46023CDE912441494AC6095
:100CE0002C732C75EB616C602F6100F079FF08B1FB
:100CF00072B6FEE70623CDE9120712A9284614931F
:100D000000F028FE034608B172B6FEE76A486B4958
:100D10006B4AC0E90233C0E900124FF48042C0E9D7
:100D20000633C0E90423036201F036FB054608B12F
:100D300072B6FEE74FF6FF770146102207A804F0CF
:100D400065FD1C2229460BA85E4CCDE9055504F033
:100D50005DFD2022294612A804F058FD5A4B20467A
:100D6000C4E90035C4E90375C4E90555A56002F07E
:100D70008FF908B172B6FEE74FF48053204607A9F9
:100D8000079302F06BFA08B172B6FEE7204602F054
:100D9000ABF908B172B6FEE7CDE9050005A920461A
:100DA00002F050FB08B172B6FEE76023CDE90D00FA
:100DB000CDE90B30CDE90F001190042220460BA99C
:100DC00002F0EAF908B172B6FEE7CDE91200CDE90A
:100DD0001400CDE91606199012A9204602F05CFB1A
:100DE000054608B172B6FEE7204600F0A1FB1022CE
:100DF00029460BA804F00AFD1C22294612A8CDE9B9
:100E0000075504F003FD4FF080433048C0E900353A
:100E1000C0E902570561856102F03AF908B172B67E
:100E2000FEE74FF4805329480BA90B9302F016FA02
:100E300008B172B6FEE7254802F056F908B172B65D
:100E4000FEE7CDE9070007A9204802F0FBFA0246B9
:100E500008B172B6FEE760231490CDE91230169007
:100E600012A91A4802F098F9044608B172B6FEE7D2
:100E7000164800F05DFB4FF416531548154AC0E9BB
:100E80000244C0E900230C230461C0E90534C461B5
:100E900002F092FB0346F8B172B6FEE70010024082
:100EA00000100140000C014000002110000801402A
:100EB000DC040020002401405804002000540040BD
:100EC000A086010010040020002C0140C80300206F
:100ED00080030020003801402C482D4A43810260E5
:100EE0000822027102220373827101F08DFB08B1A6
:100EF00072B6FEE7274C284B012523604FF4602390
:100F0000CDE912001490A060207320756060204627
:100F1000E361256100F064FE08B172B6FEE70623C6
:100F2000204612A9CDE91255149300F013FD054691
:100F300008B172B6FEE7194800F0D0FE204600F076
:100F4000CDFE0421164802F07BFA02F049FD294645
:100F5000144A154802F070FD144B29461860144AD3
:100F6000144802F069FD144B29461860134A1448CE
:100F700002F062FD134B29461860134A134802F031
:100F80005BFD134B186002F03DFDFEE7A80000205A
:100F9000005C0040AC04002000280140DC0400207C
:100FA00010040020E4620008C9010008A400002029
:100FB000C062000851010008A00000209C620008E7
:100FC000250200089C000020786200085D010008EE
:100FD000980000200268034B9A4201D100F020BC27
:100FE000704700BF000400407FB501234FF0FF327F
:100FF000CDE901320DF117028DF81700009278212A
:101000000022034801F070FA07B05DF804FB00BF4E
:10101000580400201FB54FF0FF3389B2CDE900011D
:101020000293402201237821024801F05DFA05B0C5
:101030005DF804FB5804002000284FF4007214BF30
:10104000FF210021014804F0E1BB00BF4A05002058
:1010500038B5B0240A4D2046FFF7C6FF0020FFF741
:10106000C3FF01341020FFF7BFFFE4B22846802100
:10107000FFF7D0FFB42C05F18005ECD138BD00BFDF
:101080004A050020030630B510D41F290ED80124CC
:10109000CB08074D00EBC3102B5C01F0070104FAED
:1010A00001F1A2420CBF0B438B432B5430BD00BF58
:1010B0004A0500202DE9F04F044689B008A800E950
:1010C0000E009DF84830A4F120050293EBB25E2B90
:1010D00048D8079B0BB3234413F8206CDFF88890A3
:1010E000B9F800A00AEB0603802B3BDCB9F802300C
:1010F0009DF815B0019303EB0B02202A32DC4FF070
:1011000000080BFB05F56D00C34509D85644A9F846
:101110000060204609B0BDE8F08F9DF81460DDE75F
:101120000027069A535B0493019B08EB0302D3B29A
:101130000393BE4203D808F101080235E4E7049B9B
:1011400007EB0A0003FA07F2130456BF029B029A48
:10115000B3FA83F20399C0B258BF5209FFF792FF66
:101160000137E6E70024D4E74405002070B586B0D7
:1011700003AC84E80E009DF82860451E15F8010FA9
:1011800040B1009694E80E00FFF794FF03462878DC
:101190008342F3D006B070BD014B18805980704770
:1011A000440500202DE9F74F9046A8EB0009A3EB7A
:1011B000010AB9F1000F1E46B8BFC9F10009BAF122
:1011C000000FB8BFCAF1000A80458CBF01234FF061
:1011D000FF3305460C468E428CBF4FF0010B4FF09B
:1011E000FF3B404631469DF830200093A9EB0A07AB
:1011F000FFF748FFCAF10003454504D1B44202D1CC
:1012000003B0BDE8F08F214628460193FFF73AFF6F
:10121000019B7900B3EB470FBFBF0098A7EB0A070C
:101220002D18EDB28945C2BF5C444F44E4B2E3E7F8
:101230002DE9F0411446A042804628BFA046A042B6
:10124000064638BF264699420C4628BF1C4699429E
:1012500038BF19460F469DF81820BC4201D81F2CF4
:101260000ED9BDE8F08128462146FFF70BFF013576
:10127000EDB2B54201D82B06F5D50134E4B2ECE766
:101280004546F6E710B504468120FFF7ADFE20463F
:10129000BDE81040FFF7A8BE002803460CBF034678
:1012A0000123034A0CBFAE20AF205371FFF79CBE51
:1012B0004405002008B5642000F0C4FA0020FFF7C0
:1012C000EBFF2020FFF790FE0020FFF78DFEB020FF
:1012D000FFF78AFEC820FFF787FE0020FFF784FE95
:1012E0001020FFF781FE4020FFF77EFEFF20FFF772
:1012F000C9FFA120FFF778FEA620FFF775FEA82002
:10130000FFF772FE1F20FFF76FFEA420FFF76CFEB1
:10131000D320FFF769FE0020FFF766FED520FFF718
:1013200063FEF020FFF760FED920FFF75DFE22206C
:10133000FFF75AFEDA20FFF757FE0220FFF754FEB0
:10134000DB20FFF751FE2020FFF74EFE8D20FFF738
:101350004BFE1420FFF748FE0120FFF79DFF002001
:10136000FFF76AFEFFF774FE0022034B1A805A80D3
:1013700001221A7108BD00BF44050020114B07B5BA
:101380009A690F2142F001029A619A696FF0010097
:1013900002F001020092009ADA6942F08052DA61AA
:1013A000DB69002203F080530193019B00F01AFDDA
:1013B000054A536823F0E06343F00073536003B0C1
:1013C0005DF804FB0010024000000140102210B53F
:1013D000044688B00DEB0200002104F017FA2368E0
:1013E0001F4A934224D11F4B9A6942F400729A61BA
:1013F0009A6902F400720092009A9A6942F004021B
:101400009A619B6903F004030193019B01230493F8
:101410000323154804A9059300F088FD122000223B
:10142000052100F0DFFC122000F00CFD08B010BD1B
:101430000E4A9342FAD10B4B9A6942F480629A6148
:101440009A6902F480620292029A9A6942F0040256
:101450009A619B6903F004030393039B0223D6E77D
:101460000024014000100240000801400028014013
:1014700010B5044686B01022002102A804F0C6F977
:101480002268154B9A4224D1144C4FF44072A36940
:10149000134843F00803A361A36902A903F00803FA
:1014A0000093009B1223CDE902230323059300F050
:1014B0003DFD0C4A536843F0E06343F00203536080
:1014C000E36943F40013E361E36903F40013019358
:1014D000019B06B010BD00BF005400400010024048
:1014E000000C01400000014003680F4A82B09342A3
:1014F0000BD10E4B9A6942F400629A619B6903F426
:1015000000630093009B02B07047B3F1804FFAD1A3
:1015100003F50433DA6942F00102DA61DB6903F0B2
:1015200001030193019BEEE7002C014000100240F3
:1015300010B5044686B01022002102A804F066F916
:1015400023681D4A934215D11C4B4FF400719A69D0
:101550001B4842F004029A619B6903F00403009364
:10156000009B0223CDE9021302A9059300F0DEFCE3
:1015700006B010BDB3F1804FFAD103F504339A6978
:101580000F4842F004029A619B694FF4004203F055
:1015900004030193019B022302A9CDE902230593D1
:1015A00000F0C4FC074A536823F4407343F0E0633F
:1015B00043F480735360DBE7002C014000100240CD
:1015C000000801400000014010B5044686B010221A
:1015D000002102A804F01AF922681D4B9A4235D165
:1015E00003F558439A691B4842F480429A619A690C
:1015F00002A902F480420092009A9A69002442F003
:1016000008029A619B69402203F008030193019B41
:101610000223CDE902230323059300F087FC8023F6
:101620000C4802A9CDE90234049400F07FFC0A4A78
:1016300025205368052143F0E06343F00403536021
:10164000224600F0CFFB252000F0FCFB06B010BDC9
:1016500000380140000C0140000001400268084BC6
:1016600082B09A420AD103F5DA33DA6942F4000211
:10167000DA61DB6903F400030193019B02B0704758
:10168000005C0040214B70B5DA6988B042F002027C
:10169000DA61DB69054603F00203029301A903A89E
:1016A000029B01F093FA069B4BBB01F06FFA184EB8
:1016B000184B336040F2E733F360174BB0FBF3F3A2
:1016C000013B7360002330463361B360B36101F0C6
:1016D000DFFC044680B9304601F0E2FB044658B90D
:1016E0001D2000F0AFFB0F2D0DD8224629461D20EE
:1016F00000F078FB094B1D60204608B070BD01F07A
:1017000045FA4000D3E70124F6E700BF001002408D
:101710004C0700200004004040420F00240000203D
:10172000FEE7FEE7FEE7FEE7FEE77047042000F075
:10173000DDBC082000F0DABC08B5044800F098F8D9
:10174000BDE80840024800F093B800BFDC04002068
:10175000AC040020014801F0CEBB00BF4C070020C4
:10176000014801F0BFBF00BF800300200B4A0346C1
:10177000116810B509B90A491160106809490A4C85
:101780000344091B8B4206D904F09EF80C23036026
:101790004FF0FF3010BD1360FCE700BF940700203E
:1017A000B82100200028002000040000704700003D
:1017B000FFF7FCFF0B480C490C4A002302E0D45809
:1017C000C4500433C4188C42F9D3094A094C00238D
:1017D00001E013600432A242FBD304F07BF8FFF770
:1017E000F9F97047000000207C00002030710008EB
:1017F0007C000020B8210020FEE70000074A08B561
:101800001368032043F01003136000F0D9FA0F208F
:10181000FFF738FFFFF7B2FD002008BD00200240AF
:10182000034A044B11681B780B441360704700BFD8
:101830009807002020000020014B1868704700BF67
:101840009807002038B50446FFF7F6FF0546631CED
:101850001EBF044B1B78E418FFF7EEFF431BA342A7
:10186000FAD338BD200000200368D86C7047704759
:10187000036870B51D685E680446B00626D5A907E2
:1018800024D5A26AD2065EBFA26A42F40072A262A6
:101890009A6802F46022B2F5602F10D1227B72B9EF
:1018A0005A6822F020025A60A36A23F48073A3626C
:1018B000A36AD8045EBFA36A43F00103A362204673
:1018C000FFF7E4F86FF0120223681A60310630D592
:1018D0006A072ED5A36ADB065EBFA36A43F40053F2
:1018E000A36223689A6802F4E042B2F5E04F0AD09E
:1018F0005A68500516D49A6802F46022B2F5602F37
:1019000010D1227B72B95A6822F080025A60A36A11
:1019100023F48053A362A36AD9055EBFA36A43F090
:101920000103A362204600F049FA6FF00C0223681D
:101930001A6072060CD5EB070AD5A36A204643F459
:101940008033A362FFF793FF6FF0010223681A60F0
:1019500070BD0000002373B5019390F82430044655
:10196000012B6CD0012380F824304D680268062DCD
:10197000086805EB850322D81F26556B053B9E4062
:1019800025EA060500FA03F32B43536309288B6805
:1019900000EB40054FF0070129D9D6681E3DA9404C
:1019A00026EA0101AB400B43D360A0F11003012BE9
:1019B00025D90020002384F8243002B070BD0C2DFE
:1019C0004FF01F0509D8166B233B9D4026EA0505FD
:1019D00000FA03F32B431363D8E7D66A413B9D40DB
:1019E00026EA050500FA03F32B43D362CEE710691C
:1019F000A94020EA0101AB400B431361D9E7114B29
:101A00009A4216D193681B02D3D49368102843F4EA
:101A100000039360CDD10C4B0C4A1B68B3FBF2F36F
:101A20000A2253430193019B002BC2D0019B013B2F
:101A3000F8E7A36A012043F02003A362BAE702207B
:101A4000BBE700BF002401401C00002040420F0003
:101A5000002337B50193036804469A68D20702D57C
:101A6000002003B030BD9A6842F001029A60144B26
:101A7000144A1B68B3FBF2F30193019BE3B9FFF730
:101A8000DBFE054623689B68DB07E9D4FFF7D4FE3D
:101A9000401B0228F6D923689B6813F00103F1D19B
:101AA000A26A012042F01002A262E26A84F82430A5
:101AB00042F00102E262D4E7019B013BDCE700BF98
:101AC0001C00002040420F0010B590F8243004465E
:101AD000012B58D0012380F82430FFF7B9FF0028EC
:101AE0004DD1A36A294A23F4706323F0010343F420
:101AF0008073A3622368934204D125494A6812F493
:101B0000702F32D1A26A22F48012A2625A68520562
:101B100041BFA26A22F4405242F48052A262A26AF9
:101B200012F480521CBFE26A22F00602E262002236
:101B300084F824206FF002021A605A6842F02002F2
:101B40005A609A6802F46022B2F5602F13D10F4AEE
:101B5000934205D1A2F58062526812F4702F0AD127
:101B60009A6842F4A0029A6010BDA26A42F4801200
:101B7000A2624A68CBE79A6842F48012F3E7002336
:101B800084F82430F0E70220EEE700BF002801408F
:101B90000024014038B5036804469A68D10701D48F
:101BA000002038BD9A6822F001029A60FFF744FED7
:101BB000054623689B68DB07F2D5FFF73DFE401B17
:101BC0000228F6D923689B68DA07F2D5A36A0120B8
:101BD00043F01003A362E36A43F00103E362E0E72A
:101BE000F8B5044600286DD0836A23B9C36280F833
:101BF0002430FFF7EBFB2046FFF7CCFFA36A13F07E
:101C0000100361D100285FD1A26A616822F4885272
:101C100022F0020242F00202E569A668A262227B7B
:101C20002943B6F5807F41EA420136D0771E7D42D6
:101C30007D412D02277D012F06D182BBA269013A89
:101C400045EA423242F400652268B6F5807F576863
:101C500027F4694745EA0705556097681D4D05EA71
:101C6000070545EA0105956001D0012E02D12369DF
:101C7000013B1B05D56A25F470052B43D36292689E
:101C8000154B1340994213D10023E362A36A23F05A
:101C9000030343F00103A362F8BD3546CAE7A26A15
:101CA00042F02002A262E26A42F00102E262CBE765
:101CB000A36A23F0120343F01003A362E36A43F024
:101CC0000103E3620120E7E7A36A43F01003A36284
:101CD000F8E700BFFDF7E1FFFE0E1FFF002373B51D
:101CE000019390F824300446012B62D0012380F840
:101CF0002430FFF74FFF2046FFF7AAFE05460028D5
:101D00002FD1A36A022023F4885323F0020343F067
:101D10000203A362284B1E6800F0F0FFB6FBF0F64A
:101D200076000196019B03BB2268936843F0080389
:101D30009360FFF781FD064623689A68110718D45F
:101D40009A6842F004029A60FFF776FD064623681F
:101D50009B685B0723D4A36A23F0030343F00103CA
:101D6000A362002384F8243016E0019B013B019319
:101D7000D8E7FFF761FD801B0A28DDD923689B683F
:101D80001807D9D5A36A012523F0120343F01003E5
:101D9000A362002384F82430284602B070BDFFF708
:101DA0004BFD801B0A28D2D923689B685A07CED5E1
:101DB000E8E70225F0E700BF1C00002070470000A4
:101DC00007490302CA6803F4E06322F4E0621204E4
:101DD000120C134343F0BF6343F40033CB607047EE
:101DE00000ED00E0154B30B5DC68C4F30224C4F10B
:101DF0000703251D042B28BF0423062D4FF0FF35B4
:101E000094BF0024033C05FA03F321EA0303A54031
:101E100022EA0502A340002843EA0203ACBF00F116
:101E20006040074A4FEA0313DBB2ABBF00F56140E5
:101E300000F00F0080F80033135430BD00ED00E0D7
:101E400014ED00E0002807DB01234109034A00F0FC
:101E50001F00834042F82130704700BF00E100E0DE
:101E600090F821200346022A06D004228263012032
:101E7000002283F8202070470268C06B116821F0AF
:101E80000E011160116821F00101116001211A6C2D
:101E900001FA02F24260002083F82110E8E7000016
:101EA00008B590F82130022B03D00423836301206E
:101EB00008BD03681A6822F00E021A601A6822F040
:101EC00001021A60174A93421FD0143293421ED067
:101ED000143293421DD0143293421DD014329342D7
:101EE0001DD01432934214BF4FF080734FF480130F
:101EF0000D4A5360012380F82130002380F8203000
:101F0000436B03B198470020D2E70123F0E7102389
:101F1000EEE74FF48073EBE74FF48053E8E74FF4BC
:101F20008033E5E708000240000002402DE9F74F4A
:101F300000221646DFF87CC15F4BDFF880E1DFF856
:101F400080810D6835FA06F402D103B0BDE8F08F48
:101F50000127B74005EA070437EA050575D14D6842
:101F6000032D06D8013D022D7ED8DFE805F08F94C1
:101F70009A00122D00F0928069D8112D00F088800F
:101F8000FF2C98BF81464FF00F0B88BF00F104096A
:101F90004FEA8605D9F8007088BF203D0BFA05FA94
:101FA00027EA0A0702FA05F52F43C9F80070D1F8AD
:101FB000049019F0805F48D0DCF8185026F0030731
:101FC00045F00105CCF81850DCF8185007F18047AF
:101FD00005F00105019507F5803706F0030A019D1C
:101FE0004FEA8A0ABD680BFA0AFB25EA0B0B354D4E
:101FF000A8425AD005F58065A84258D005F58065FD
:10200000A84214BF0325022505FA0AF545EA0B0587
:10201000BD609D6819F4801F14BF2543A5439D60D2
:10202000DD6819F4001F14BF2543A543DD605D681A
:1020300019F4003F14BF2543A5435D601D6819F4E2
:10204000803F14BF2543A5431D60013679E7DFF8C3
:1020500078904D4508D011D8A9F580194D4503D089
:10206000754501D045458BD18A68E2B1012A08BF88
:1020700007614FF0080218BF476181E7DFF84C9015
:102080004D45F1D009F580394D45ECE7CA6877E751
:10209000CA68043274E7CA68083271E7CA680C3249
:1020A0006EE700226CE704226AE70025ACE7012511
:1020B000AAE700BF00100240000401400000211008
:1020C0000000111000080140000022100000311033
:1020D0000AB1016170470904FBE7C36801EA030222
:1020E00021EA030141EA024101617047044A08B54F
:1020F0005169014202D05061FEF710FD08BD00BFDA
:1021000000040140016800224B6913F4806310D081
:102110006FF480634B612023026380F83D3080F8C8
:102120003E20036C80F83C2043F00403036401204C
:102130007047184670472DE9F84606460F46914607
:102140001D464FEA114A3368BAF1010F0CBF5C69B2
:102150009C6927EA0404A4B2B4FA84F46409A14592
:1021600001D0002025E06A1CEED0FFF765FB089B3C
:10217000C01AA84201D8002DE5D13368BAF1010F89
:102180000CBF5B699B6927EA03039BB2B3FA83F335
:102190005B099945D7D1002320220120336386F8BB
:1021A0003D2086F83E30326C86F83C3042F020020A
:1021B0003264BDE8F8862DE9F04104460F46164624
:1021C00098462568686927EA000080B2C0B16B694B
:1021D0005A0517D52B68202243F400732B606FF447
:1021E00080636B610023236384F83D2084F83E30D4
:1021F000236C43F0040323640023012084F83C3063
:10220000BDE8F081731CDDD0FFF716FBA0EB0800E2
:10221000B04201D8002ED4D123685A6927EA0202BD
:1022200092B2002ACDD000232022236384F83D20DF
:1022300084F83E30236C1343DDE770B504460D4649
:10224000164623685B691B0601D500201EE0204668
:10225000FFF758FFC8B96A1CF3D0FFF7EDFA801BEF
:10226000A84201D8002DECD123685B6913F08003EC
:10227000E7D12022236384F83D2084F83E30226C8D
:1022800084F83C3042F020022264012070BD00003E
:102290002DE9F043154602689946136885B043F46A
:1022A00080731360DDE90C780E463B4600224FF048
:1022B0000111CDF800800446FFF73DFF236838B1D7
:1022C0001B68DB0502D54FF400732364032620E06E
:1022D00006F0FE061E613A46434620461849FFF7BF
:1022E0006AFFA8B9236803905A69394603929B692B
:1022F000424603932046039BFFF79FFF064660B1CB
:10230000236C042B01BF2268136843F4007313602D
:102310000126304605B0BDE8F083B9F1010F23680E
:1023200002D1EDB21D61F4E72A0A1A61394642462C
:102330002046FFF782FF0028E2D12368F1E700BFC3
:102340000200010070B504460D46164623685B691D
:102350005B0701D500201EE02046FFF7D3FEC8B979
:102360006A1CF3D0FFF768FA801BA84201D8002D41
:10237000ECD123685B6913F00403E7D120222363C7
:1023800084F83D2084F83E30226C84F83C3042F0E2
:1023900020022264012070BD70B5044608B90120F6
:1023A00070BD90F83D3003F0FF021BB980F83C206F
:1023B000FFF75EF8242384F83D3023681A6822F082
:1023C00001021A601A6842F400421A601A6822F484
:1023D00000421A6000F0DAFB3F4B65689D4294BFF3
:1023E0003E4B3F4B98428CBF00230123002BD6D19C
:1023F000394E3C4BB542B0FBF3F388BF4FF49676B1
:102400002268516821F03F0141EA030182BF734312
:102410004FF47A76B3FBF6F35160116A013321F081
:102420003F010B431362D169431E2B4821F44F41F6
:10243000854221F0FF0132D86D00B3FBF5F340F681
:10244000FC700133034242D0C3F30B031943D16143
:102450001168D4E9073021F0C00103430B43136036
:102460009168D4E9030321F40341034321F0FF0100
:102470000B439360D168D4E9053021F0FF01034399
:102480000B43D3601368002043F001031360202343
:10249000206484F83D30206384F83E0080E7A06823
:1024A00050B905EB4505B3FBF5F30133C3F30B035B
:1024B0007BB143F40043C9E719206843B3FBF0F351
:1024C0000133C3F30B0323B143F44043BEE70423BA
:1024D000BCE70123BAE700BFA08601007F841E008D
:1024E000FF083D0040420F002DE9F743044699469E
:1024F0000F4690460C9EFFF79FF994F83D30054635
:10250000202B03D0022003B0BDE8F08300901923F4
:10251000012220463A49FFF70EFE0028F2D194F836
:102520003C30012BEED00123206884F83C30036856
:102530004246D90758BF036839465CBF43F00103E0
:102540000360036823F400630360212384F83D30B3
:10255000402384F83E30002323640A9B20466362B4
:10256000BDF82C306385638D2385264BE3624B4693
:10257000CDE90065FFF78CFE00282AD00120C2E7D4
:10258000FFF75BFE40B1236C042B01BF2268136888
:1025900043F400731360F1E7636A27681A4612F880
:1025A000011B39616262628D218D013A92B26285AE
:1025B0007A69481E80B2520720850AD548B15A78F8
:1025C00002333A616362638D0239013B9BB221851C
:1025D0006385238D2A4631462046002BD0D1FFF754
:1025E000B1FE0028CFD12268136843F40073136052
:1025F000202384F83C0084F83D3084F83E0082E7D4
:10260000020010000000FFFFF8B50446E0B190F8AA
:10261000913203F0FF021BB980F89022FFF71EF8F9
:10262000032384F8913200232546637155F8040B87
:1026300001F0A9F995E80E00206801F09DF9014626
:1026400028B1022384F8913201252846F8BD20687C
:1026500001F0A3F90028F4D102460127267904F1FC
:102660001003C1B28E4203F1280318D800210A4694
:1026700004F5A873C8B2864203F128031BD895E875
:102680000E00206801F08BF905460028D9D10123FE
:102690006073206884F8913201F092F9D5E743E93C
:1026A000062203F8277C03F8281C03F8252C43F89E
:1026B000102C0130D5E743E9062203F8272C03F854
:1026C000280C03F8252C43F8102C0131D2E7000028
:1026D0002DE9F341054638B30368DB0710D42B68B6
:1026E0009F075ED42B68190700F195802B685A0765
:1026F00000F1C180EB69002B40F02C81002029E023
:10270000904C636803F00C03042B07D0636803F05C
:102710000C03082B0AD16368DE0307D523689C03EA
:10272000DDD56B68002BDAD1012013E06B68B3F5BF
:10273000803F12D1236843F480332360FFF77CF895
:10274000064623689803CAD4FFF776F8801B6428EE
:10275000F7D9032002B0BDE8F0819BB9236823F4C8
:1027600080332360236823F480232360FFF764F819
:10277000064623689903B2D5FFF75EF8801B6428EC
:10278000F7D9E6E7B3F5A02F236803D143F48023FC
:102790002360CFE723F480332360236823F480236E
:1027A000CBE7684C636813F00C0F07D0636803F045
:1027B0000C03082B10D16368DA030DD423689B0740
:1027C00002D52B69012BAFD123686A6923F0F80386
:1027D00043EAC203236085E72A695B4B6AB10122A1
:1027E0001A60FFF729F8064623689F07ECD4FFF725
:1027F00023F8801B0228F7D9ABE71A60FFF71CF813
:102800000646236898077FF56DAFFFF715F8801B24
:102810000228F6D99DE7AA694A4E4B4BE2B1012244
:10282000C3F88024FFF708F80446736A9B070DD5A8
:102830004FF4FA52454B1B68B3FBF2F3019300BF10
:10284000019B5A1E0192002BF9D14FE7FEF7F4FFCE
:10285000001B0228E9D97CE7C3F88024FEF7ECFFCF
:102860000446736A9F077FF541AFFEF7E5FF001B43
:102870000228F6D96DE7334CE369D80024D4012748
:10288000E36943F08053E361E36903F0805300930D
:10289000009B2F4E3368D90518D5EB68012B26D144
:1028A000236A43F001032362FEF7C6FF41F2883832
:1028B0000646236A9B073FD5002F3FF41BAFE36911
:1028C00023F08053E36115E70027E2E7336843F420
:1028D00080733360FEF7B0FF80463368DA05DCD4DE
:1028E000FEF7AAFFA0EB08006428F6D931E7ABB9E0
:1028F000236A41F2883823F001032362236A23F01C
:1029000004032362FEF798FF0646236A9807D3D58F
:10291000FEF792FF801B4045F7D91AE7052B236A83
:1029200003D143F004032362BAE723F001032362D7
:10293000236A23F00403B6E7FEF77EFF801B4045C1
:10294000B7D906E700100240000042421C000020F8
:10295000007000402A4C626802F00C02082A3ED047
:102960000022022B274B1A662CD1FEF765FF064684
:102970002368990120D42B6AB3F5803F05D16268A2
:10298000A96822F400320A436260696A62680B43F4
:1029900022F474121343012263601A4B1A66FEF785
:1029A0004BFF054623689A013FF5A8AEFEF744FFAA
:1029B000401B0228F6D9CCE6FEF73EFF801B02281A
:1029C000D6D9C6E6FEF738FF054623689B017FF59A
:1029D00095AEFEF731FF401B0228F6D9B9E6012B70
:1029E0003FF4A2AE60682B6A00F480329A427FF412
:1029F0009BAE6B6A00F47010C01A18BF0120A9E6E4
:102A000000100240000042420D4A536803F00C01DE
:102A1000082912D10B48C3F38341DB03405C09D57D
:102A20005368094AC3F340435043084AD35CB0FBA0
:102A3000F3F07047064B584370470348704700BF98
:102A400000100240BE70000800127A00BC7000083E
:102A500000093D002DE9F0410D46044610B9012062
:102A6000BDE8F081444A136803F007038B4228D382
:102A700021688E0730D4CA0743D43F4A136803F055
:102A80000703AB4265D822683C4D12F0040F6CD1AD
:102A9000130706D56B68226923F4605343EAC20327
:102AA0006B60FFF7B1FF6B68354AC3F30313D35C68
:102AB000D840344B1860344B1868FEF7E3FD002013
:102AC000CEE7136823F007030B431360136803F08A
:102AD00007038B42C3D1CBE7284B11F0040F1EBF75
:102AE0005A6842F4E0625A60080742BF5A6842F4EA
:102AF00060525A605A68A06822F0F00202435A609D
:102B0000B9E762681D4E012A33681AD113F4003FF9
:102B1000A5D0736841F2883823F003031343736030
:102B2000FEF78AFE07467368626803F00C03B3EB96
:102B3000820FA2D0FEF780FEC01B4045F3D90320D0
:102B40008EE7022A02D113F0007FE1E713F0020FB3
:102B5000DEE7136823F007032B431360136803F0C9
:102B60000703AB427FF47BAF8DE76B68E16823F42A
:102B7000E0630B436B608BE70020024000100240D3
:102B8000AC7000081C00002024000020044B054A03
:102B90005B68C3F30223D35C034A1068D8407047D4
:102BA00000100240A47000081C000020044B054ADD
:102BB0005B68C3F3C223D35C034A1068D8407047F4
:102BC00000100240A47000081C0000200F230360C6
:102BD0000B4B5A6802F0030242605A6802F0F0029E
:102BE00082605A6802F4E062C2605B68DB0803F44A
:102BF000E0630361034B1B6803F007030B6070473E
:102C0000001002400020024003682DE9F341054610
:102C1000D80721D5364CE369D9002BD40126E369C6
:102C200043F08053E361E36903F080530193019B18
:102C3000304F3B68DA051FD5236A6A6813F4407386
:102C40002ED1236A6A6823F44073134323621EB1B2
:102C5000E36923F08053E3612A68910706D524498C
:102C6000A8684B6823F4404303434B60D30636D433
:102C7000002012E00026DBE73B6843F480733B60F2
:102C8000FEF7DAFD80463B68DB05D5D4FEF7D4FDC0
:102C9000A0EB08006428F6D9032002B0BDE8F0815B
:102CA00002F440729A42CCD00120134A236AC2F83F
:102CB0004004002023F44071DF07C2F84004216281
:102CC000BFD5FEF7B9FD41F288380746236A980759
:102CD000B7D4FEF7B1FDC01B4045F7D9DCE7044A85
:102CE000E968536823F480030B435360C0E700BFD7
:102CF000001002400070004000004242022808B567
:102D000044D0102803D0012822D0002034E0254BE5
:102D10005A68186810F080702ED0C2F383412248A0
:102D2000D20348BF5A68405C41BF2049C2F34042C9
:102D3000895C1F4A5B684CBFB2FBF1F21D4A5B0223
:102D400002FB00F018D403234000B0FBF3F013E0C3
:102D500040F20231134A136A1940B1F5817F1ED047
:102D600003F44073B3F5007F07D149F64043506A3E
:102D700010F0020018BF184608BDB3F5407FC4D15B
:102D800010684FF2244310F40030F3E7FFF70EFF12
:102D9000044B5B68C3F3813301335B00D5E74FF429
:102DA0000040E9E700100240D0700008CE70000833
:102DB00000127A0000093D00036A026A70B522F031
:102DC00001020262446882690D6822F073022A439C
:102DD0008D6823F002032B430A4DA8420BD1CD6826
:102DE00023F008032B4324F44074D1E905563543FE
:102DF00023F004032C43446082614A684263036207
:102E000070BD00BF002C0140036A026A70B522F455
:102E1000807202624468C2690D6822F073022A431C
:102E20008D6823F4007343EA05230B4DA8420DD1AE
:102E3000CD6823F4006343EA052324F44054D1E928
:102E40000556354323F4806344EA05144460C261A7
:102E50004A68C263036270BD002C0140036A026AC3
:102E600030B522F4805202624468C2690D6822F4CF
:102E7000E64242EA05228D6823F4005343EA053313
:102E8000064DA84202BF4D6924F4804444EA8514EB
:102E90004460C2614A680264036230BD002C014094
:102EA00090F83D30012B1CD1022380F83D3003689F
:102EB000DA6842F00102DA600B4A934206D0B3F1BD
:102EC000804F03D0A2F59432934204D19A6802F065
:102ED0000702062A03D01A6842F001021A60002095
:102EE00070470120704700BF002C014070477047B9
:102EF000704770477047036870B5DD681E69044607
:102F0000B1070DD5AA070BD56FF002021A61012295
:102F100002779B699B0769D0FFF7EAFF00232377BD
:102F2000710710D56A070ED56FF00402236820469A
:102F30001A61022222779B6913F4407F5CD0FFF76D
:102F4000D7FF0023237733070FD528070DD56FF060
:102F50000802236820461A6104222277DB69990758
:102F600050D0FFF7C5FF00232377F20610D5EB06FC
:102F70000ED56FF01002236820461A6108222277CE
:102F8000DB6913F4407F43D0FFF7B2FF00232377C0
:102F9000F00708D5E90706D56FF00102236820463F
:102FA0001A61FEF717F8320608D52B0606D56FF022
:102FB0008002236820461A6100F095FA700608D551
:102FC000690606D56FF04002236820461A61FFF7B4
:102FD00091FFB20622D5AB0620D56FF02002236800
:102FE0002046BDE870401A6100F07CBAFFF77FFF11
:102FF0002046FFF77EFF91E7FFF779FF2046FFF7B6
:1030000078FF9EE7FFF773FF2046FFF772FFAAE7FE
:10301000FFF76DFF2046FFF76CFFB7E770BD0000BC
:10302000194A10B59042036805D0B0F1804F02D024
:10303000164CA04210D14C6823F07003904243EA32
:10304000040305D0B0F1804F02D0104A904203D162
:10305000CA6823F4407313434A6923F0800313437F
:1030600003608B68C3620B688362074B984204BF9E
:103070000B690363012343610369DB0742BF0369F3
:1030800023F00103036110BD002C01400004004047
:1030900010B5044630B390F83D3003F0FF021BB981
:1030A00080F83C20FEF720FA0223206884F83D30A7
:1030B000211DFFF7B5FF0123002084F8463084F876
:1030C0003E3084F83F3084F8403084F8413084F852
:1030D000423084F8433084F8443084F8453084F832
:1030E0003D3010BD0120FCE710B5044630B390F828
:1030F0003D3003F0FF021BB980F83C20FFF7F6FEDD
:103100000223206884F83D30211DFFF789FF012349
:10311000002084F8463084F83E3084F83F3084F84C
:10312000403084F8413084F8423084F8433084F8E9
:10313000443084F8453084F83D3010BD0120FCE770
:10314000036A026A70B522F0100202624468826962
:103150000D6822F4E64242EA05228D6823F020033E
:1031600043EA05130B4DA8420DD1CD6823F080032F
:1031700043EA051324F44064D1E90556354323F0AE
:10318000400344EA8504446082614A6882630362C2
:1031900070BD00BF002C014038B590F83C300446AB
:1031A000012B4FD00120082A84F83C003AD006D8E1
:1031B000BAB1042A26D0002384F83C3038BD0C2A4A
:1031C000F9D12068FFF74AFEC3690A6943F4006336
:1031D000C361C36923F48063C361C36943EA022303
:1031E0002EE02068FFF7E8FD83690A6943F00803D1
:1031F0008361836923F004038361836913438361DB
:103200000020D8E72068FFF79BFF83690A6943F431
:1032100000638361836923F480638361836943EA84
:103220000223ECE72068FFF7EFFDC3690A6943F06A
:103230000803C361C36923F00403C361C369134373
:10324000C361DDE70220B9E710B584680A4324F4BE
:103250007F4442EA03222243826010BD38B590F8D1
:103260003C300446012B4FF0020000F08E8001221A
:1032700084F83D00206884F83C20836823F47F4371
:1032800023F0770383600B68602B4FD032D8402B3C
:1032900064D016D8202B0DD00AD833F0100109D0F5
:1032A000012384F83D30002384F83C30104638BDBB
:1032B000302BF5D1826822F07002134343F00703EC
:1032C00028E0502BECD14A68CD68016A036A21F0EE
:1032D0000A0123F00103036283690A4323F0F00328
:1032E00043EA051383610262836823F0700343F0AD
:1032F00057030FE0B3F5805F0DD0B3F5005F0CD03E
:10330000702BCDD1CB68D1E90121FFF79DFF8368F8
:1033100043F0770383600022C2E7CB68D1E9012143
:10332000FFF792FF836843F48043F3E7036A026A7E
:103330004D6822F01002C9680262826923F0A0037E
:1033400022F4704243EA051342EA013282610362C9
:10335000836823F0700343F06703DBE74A68CD68B6
:10336000016A036A21F00A0123F001030362836901
:103370000A4323F0F00343EA051383610262836882
:1033800023F0700343F04703C4E702468EE710B50D
:103390000124036A01F01F018C4023EA0403036245
:1033A000036A8A401A43026210BD000008B529B9B9
:1033B00090F83E30012B1DD001202EE0042907D1CA
:1033C00090F83F30012BF7D1022380F83F3014E012
:1033D000082907D190F84030012BEDD1022380F865
:1033E00040300AE090F84130012BE5D1022380F80B
:1033F000413002E0022380F83E3000680122FFF7EE
:10340000C6FF0D4B984209D0B0F1804F0BD18368B5
:1034100003F00703062B09D1002008BD436C43F4D9
:1034200000434364F3E7054B9842F0D0036843F050
:1034300001030360F0E700BF002C014000040040DE
:10344000FFF7B4BF30B590F83C200346012A4FF097
:1034500002001ED01A6883F83D0054680D6824F0FD
:1034600070042C43906854600A4CA24206D0B2F11A
:10347000804F03D0A4F59434A24204D1496820F0CF
:103480008000014391600122002083F83D2083F8F1
:103490003C0030BD002C014090F83C300246012B2E
:1034A0001ED0CB68886823F440730343486823F434
:1034B00080630343086823F400630343086923F42B
:1034C00080530343486923F4005303430020C96930
:1034D00023F480430B4311684B6482F83C0070472F
:1034E0000220704770477047026802F10C0353E8EE
:1034F000003F23F490730C3242E800310268002947
:10350000F2D102F1140353E8003F23F0010302F16A
:10351000140C4CE800310029F3D1036B012B0BD1C3
:1035200002F10C0353E8003F23F0100302F10C0CEE
:103530004CE800310029F3D1202380F842300023E9
:103540000363704710B504460368C1681A6922F422
:1035500040520A431A6182680069D968024360696F
:1035600021F4B05121F00C0102430A43DA605A6998
:10357000A16922F440720A435A610E4A934215D15E
:10358000FFF714FB19234343626820689200B3FBE2
:10359000F2F36422B3FBF2F102FB11331B0132336D
:1035A000B3FBF2F303EB0113836010BDFFF7EEFAF8
:1035B000E8E700BF0038014010B5044648B390F872
:1035C000413003F0FF021BB980F84020FDF7FCFFFB
:1035D0002423226884F84130D368204623F4005322
:1035E000D360FFF7AFFF236800201A6922F49042EE
:1035F0001A615A6922F02A025A61DA6842F40052CA
:10360000DA602023606484F8413084F842306063DB
:1036100010BD0120FCE770477047704708B50023D4
:10362000406AC385C384FFF7F8FF08BD704790F870
:10363000423007B5222B42D181680268B1F5805F24
:10364000836A3FD1016900293FD15268C2F3080261
:1036500023F8022B8362C38D013B9BB2C385002BF1
:103660002DD10268D16821F02001D160D16821F408
:103670008071D160516921F001015161202280F8EF
:1036800042204363026B012A026828D1036302F1DE
:103690000C0353E8003F23F0100302F10C0C4CE83C
:1036A00000310029F3D11368DB0605D501911368B9
:1036B000019353680193019B818DFFF7B7FF03B01E
:1036C0005DF804FB39B9016929B95268D2B21A70A0
:1036D000836A0133BEE7526802F07F02F7E7FFF723
:1036E0009BFFECE7036873B51A6804461607D968B0
:1036F0005D6908D1960668D58D0666D502B0BDE82D
:103700007040FFF794BF05F0010001F49075054388
:103710005BD0D60705D5CD0542BF636C43F00103EE
:103720006364530704D518B1636C43F00203636408
:10373000960704D518B1636C43F00403636415075E
:1037400007D501F0200303431EBF636C43F0080359
:103750006364636C002B32D0920604D58B0602D5CD
:103760002046FFF764FF266820467369626C03F009
:10377000400302F0080253EA020522D0FFF7B4FE2C
:1037800073695E0618D5226802F1140353E8003FFE
:1037900023F04003143242E800310029F3D1E06BFA
:1037A00050B1744B4363FEF77BFB40B1E06B436B5E
:1037B00002B0BDE8704018472046FFF72EFF02B068
:1037C00070BDFFF72AFF6564F9E7206B012840F020
:1037D0009480D50640F19180C80640F18E80002289
:1037E00001921A6801925A680192019A5A69520626
:1037F0004DD5E16B0A68526892B2002ADFD0A08DE5
:103800009042DCD9E2858A69202A36D003F10C0285
:1038100052E8002F22F4807203F10C0040E80021EE
:103820000029F3D103F1140252E8002F22F0010223
:1038300003F1140040E800210029F3D103F1140240
:1038400052E8002F22F0400203F1140040E800216A
:103850000029F3D1202284F84220216303F10C02D5
:1038600052E8002F22F0100203F10C0040E8002182
:103870000029F3D1E06BFEF7F3FA02236363E38DD3
:10388000A18DC91A89B22046FFF7D0FE97E7E28DD5
:10389000E08DA18D80B292B2002890D0891A89B2B1
:1038A00000298CD003F10C0252E8002F22F4907210
:1038B00003F10C0545E800200028F3D103F11402C0
:1038C00052E8002F22F0010203F1140545E8002020
:1038D0000028F3D1202284F84220206303F10C0257
:1038E00052E8002F22F0100203F10C0545E80020F9
:1038F0000028F3D102236363C5E7160628D50D0619
:1039000026D594F84120212A7FF459AFA168226A74
:10391000B1F5805F17D12169A9B932F8021BC1F353
:10392000080159602262E28C013A92B2E284002AD4
:103930007FF445AFDA6822F08002DA60DA6842F09C
:103940004002DA603BE7511C216212785A60EAE7D4
:1039500050067FF534AF4A067FF531AFDA6820466E
:1039600022F04002DA60202384F84130FFF753FE52
:1039700025E700BF1D36000884B004A800E90E004A
:10398000002004B07047B0F8403023F47C535B044F
:103990005B0CA0F8403000207047002070471FB536
:1039A000044604A800E90E0000200123A4F84030DA
:1039B000A4F84000A4F84400A4F8500004B010BDDE
:1039C0000020704708B54FF0E0231B6901F000F9B3
:1039D000012803D0BDE8084001F034BD08BD000057
:1039E000EFF305832BB9064B186828B901221A603A
:1039F00070476FF0050070474FF0FF30704700BF11
:103A0000EC0E002010B5EFF305845CB9084B1A6882
:103A1000012A0AD1074AD47702221A6000F03AFE3E
:103A2000204610BD6FF00500FBE74FF0FF30F8E7D0
:103A3000EC0E002000ED00E0F0B51446002287B047
:103A40000B460592EFF30582CAB9C0B16CB3A56904
:103A5000002D08BF1825691E3729AC462AD8616891
:103A6000C90727D466696EB1B2082168D4E9027E1D
:103A700057B1BEF1A70F02D9246904B1E6B9059880
:103A800007B0F0BD8022F0E7BEF1000FF7D1246946
:103A9000002CF4D105ACCDE900C492B200F0CCFD0D
:103AA00001281CBF00230593E9E721464FF0180CBD
:103AB0008022EFE71046E3E7CDE90147009500F0EB
:103AC00083FD0590DBE730B5044685B008B10029D9
:103AD00005DA6FF003030293029805B030BD4FF092
:103AE000FF330293EFF30585E5B1002503AB012217
:103AF00000932B46039501F07FF902AB2A46294635
:103B00002046009501F078F9039B002BE4D04FF09C
:103B1000E0234FF08052C3F8042DBFF34F8FBFF363
:103B20006F8FD9E72B46012201F0EEF82A4629468D
:103B3000204602AB01F0E8F8CEE7F7B50446EFF314
:103B40000586DEB900281CDB01F03CF83246314620
:103B500001AB074601F0D8F801280AD1019D334690
:103B600025EA040103223846019101F0CDF801282D
:103B700001D04FF0FF35284603B0F0BD6FF00505CA
:103B8000F9E76FF00305F6E72DE9F34706460F4620
:103B90009046EFF30584002C3CD100283DDB11F06A
:103BA000020F0CBF82464FF0000A00F0CBFD4546E5
:103BB000814607F001072B465146002001AA01F07B
:103BC00059F801281CD1019B34401C4306EA040328
:103BD0003FB19E4207D0B8F1000F08D16FF0020448
:103BE00001E0002BF7D0204602B0BDE8F08700F0DE
:103BF000A9FDA0EB09039D4212D34D442D1ADAE72B
:103C0000B8F1000F14BF6FF001046FF00204002838
:103C1000D1D1E8E76FF00504E5E76FF00304E2E7D0
:103C20000025C8E708B5EFF3058222B908B100F016
:103C30009BFE002008BD6FF00500FBE7034B03600F
:103C4000034B0B6080231360704700BF440E0020BD
:103C5000440C0020034B0360034B0B604FF4807354
:103C6000136070479C0B00209C0700204FF0FF3230
:103C700000F10803C0E902234360036100230360ED
:103C8000704700230361704743689A684B608A60FD
:103C9000516099600368086101330360704730B573
:103CA0000C68631C0AD103695A684A6091608B6092
:103CB0005960036808610133036030BD00F10802F8
:103CC000134652681568A542FAD9EDE70369D0E9B1
:103CD00001128A6051605968814208BF5A6000220F
:103CE00002611A68013A1A601868704710B50446F4
:103CF00001F050FBA46B01F06DFBB4FA84F04009B5
:103D000010BD70B51646026C0446856B42B9066854
:103D10009EB9806800F06CFFA6600135A56370BD98
:103D20006EB9406801F0FCFD6368226C1344A26820
:103D30006360934224BF236863600020EDE7C0689E
:103D400001F0EEFD226CE36851429B1A2268E360A9
:103D500093423EBFA3685B18E360022EEDD10DB124
:103D6000013DEAE72846D8E703461A6C084610B436
:103D700062B1DC68996814448C4228BF1968DC6021
:103D800028BFD960D96810BC01F0CABD10BC70470B
:103D900070B5044601F0FEFA94F8455004F124068B
:103DA0006DB2002D14DCFF2384F8453001F012FBC6
:103DB00001F0F0FA94F8445004F110066DB2002DB1
:103DC00012DCFF2384F84430BDE8704001F002BBF0
:103DD000636A002BE7D0304600F066FE08B100F0C1
:103DE000EBFE013D6DB2DCE72369002BE9D03046E4
:103DF00000F05AFE08B100F0DFFE013D6DB2DEE7D3
:103E000038B50D46044640B94FF0500383F311888E
:103E1000BFF36F8FBFF34F8FFEE701F0BBFAD4E91A
:103E20000F314B432268D0185B1AA06062600020FB
:103E30001A44FF23A063E26084F8443084F84530DC
:103E4000A5B9236973B104F1100000F02DFE48B14B
:103E50004FF0E0234FF08052C3F8042DBFF34F8F93
:103E6000BFF36F8F01F0B6FA012038BD04F11000E6
:103E7000FFF7FCFE04F12400FFF7F8FEF2E737B588
:103E80000D461C4640B94FF0500383F31188BFF331
:103E90006F8FBFF34F8FFEE743B94FF0500383F3AB
:103EA0001188BFF36F8FBFF34F8FFEE74AB191B90F
:103EB0004FF0500383F31188BFF36F8FBFF34F8F21
:103EC000FEE741B14FF0500383F31188BFF36F8FCA
:103ED000BFF34F8FFEE750230193019B502B08D077
:103EE0004FF0500383F31188BFF36F8FBFF34F8FF1
:103EF000FEE70121002D08BF2246C4E90F0584F822
:103F0000461020462260019BFFF77AFF20469DF86D
:103F1000183084F84C3003B030BD2DE9FF410F4616
:103F20001E460446019240B94FF0500383F31188B6
:103F3000BFF36F8FBFF34F8FFEE751B9036C43B1EF
:103F40004FF0500383F31188BFF36F8FBFF34F8F90
:103F5000FEE7022E0BD1E36B012B08D04FF050038C
:103F600083F31188BFF36F8FBFF34F8FFEE700F02D
:103F70002FFE054630B300254FF0000801F00AFA85
:103F8000A26BE36B9A4201D3022E27D13246394607
:103F90002046FFF7B6FE636A1BB104F1240000F06F
:103FA00083FD48B14FF0E0234FF08052C3F8042D59
:103FB000BFF34F8FBFF36F8F01F00CFA012004B0F5
:103FC000BDE8F081019B002BD6D04FF0500383F366
:103FD0001188BFF36F8FBFF34F8FFEE7019B1BB9B3
:103FE00001F0F8F90020EAE715B902A800F09CFDFD
:103FF00001F0F0F900F09EFB01F0CCF994F84430A8
:10400000FF2B08BF84F8448094F84530FF2B08BF8D
:1040100084F8458001F0DEF901A902A800F090FDC6
:1040200038BB01F0B7F9A26BE36B9A420ED101F0F5
:10403000D1F9019904F1100000F0FCFC2046FFF7D3
:10404000A7FE00F01DFC48B1012597E701F0C2F979
:104050002046FFF79DFE00F013FCF5E74FF0E0234C
:104060004FF08052C3F8042DBFF34F8FBFF36F8F13
:10407000EAE72046FFF78CFE00F002FCB2E72DE9EC
:10408000F843894617461E46044640B94FF0500390
:1040900083F31188BFF36F8FBFF34F8FFEE751B9E2
:1040A000036C43B14FF0500383F31188BFF36F8F5C
:1040B000BFF34F8FFEE7022E0BD1E36B012B08D02D
:1040C0004FF0500383F31188BFF36F8FBFF34F8F0F
:1040D000FEE701F037FAEFF311884FF0500383F356
:1040E0001188BFF36F8FBFF34F8FA26BE36B9A42C0
:1040F00001D3022E1ED194F845503246494620463F
:104100006DB2A36BFFF7FDFD6B1C0ED1636A3BB173
:1041100004F1240000F0C8FC10B10FB101233B6092
:10412000012088F31188BDE8F88301356DB284F869
:104130004550F5E70020F4E72DE9FF410E4604461F
:10414000019240B94FF0500383F31188BFF36F8F92
:10415000BFF34F8FFEE751B9036C43B14FF05003EB
:1041600083F31188BFF36F8FBFF34F8FFEE700F02B
:104170002FFD054618B300254FF0000801F00AF99D
:10418000A76B47B331462046013FFFF7EDFDA7631C
:10419000236973B104F1100000F086FC48B14FF0C0
:1041A000E0234FF08052C3F8042DBFF34F8FBFF3CD
:1041B0006F8F01F00FF9012004B0BDE8F081019B81
:1041C000002BD9D04FF0500383F31188BFF36F8FCA
:1041D000BFF34F8FFEE7019B1BB901F0FBF80020F6
:1041E000EAE715B902A800F09FFC01F0F3F800F02F
:1041F000A1FA01F0CFF894F84430FF2B08BF84F8FF
:10420000448094F84530FF2B08BF84F8458001F0C6
:10421000E1F801A902A800F093FC00BB2046FFF7DB
:1042200065FDB0B1019904F1240000F003FC2046C3
:10423000FFF7AEFD00F024FB48B94FF0E0234FF04C
:104240008052C3F8042DBFF34F8FBFF36F8F01254A
:1042500094E72046FFF79CFD00F012FBF7E72046AD
:10426000FFF796FD00F00CFB2046FFF73FFD00280E
:10427000EDD0B4E7002330B5064A52F8335002EBD4
:10428000C3041DB942F83310606030BD0133082B00
:10429000F3D1FAE7F00E002070B504460D4616463D
:1042A00001F078F894F84430FF2B04BF002384F821
:1042B000443094F84530FF2B04BF002384F8453088
:1042C00001F088F8A36B2BB93246294604F124008B
:1042D00000F0CAFB2046BDE87040FFF759BD000062
:1042E0002DE9F041044601F055F8304B304E1A6884
:1042F000304F01321A603568002D4BD134601B6895
:10430000012B1FD1B84640460135FFF7AFFC382DD1
:1043100008F11408F7D1DFF8A080284D4046FFF7D8
:10432000A5FC2846FFF7A2FC2548FFF79FFC25487F
:10433000FFF79CFC2448FFF799FC244BC3F800804E
:10434000234B1D601420234A136801331360224A53
:1043500063641168E36A8B4200FB037004F104019B
:1043600088BF1360FFF790FC01F034F81B4B1B680B
:1043700073B13368DA6AE36A9A4209D24FF0E023F4
:104380004FF08052C3F8042DBFF34F8FBFF36F8FF0
:10439000BDE8F081114B1A68E36A002AD2D1326875
:1043A000D26A9A4298BF3460CCE700BF540F002015
:1043B00028140020C80F0020B40F0020A00F0020F8
:1043C000840F0020700F0020580F00209C0F002049
:1043D000980F0020380F00204C0F0020480F0020BD
:1043E000F8B50646144B154D1C6828680F46043076
:1043F000FFF76CFC731C07D137B1296810480431F2
:10440000BDE8F840FFF740BC2B68A4195C6007D3F7
:104410000C4B18682968BDE8F8400431FFF73FBC31
:10442000094B186829680431FFF739FC074B1A68F3
:10443000A24288BF1C60F8BD500F00202814002045
:10444000580F0020980F00209C0F0020340F0020F0
:10445000064A13681968064B19B94FF0FF321A6003
:1044600070471268D268D2685268F8E79C0F002043
:10447000340F002010B50446543001F0CFF994F801
:10448000A5303BB9206B01F049F92046BDE810404A
:1044900001F044B9012BF8D0022B08D04FF05003A3
:1044A00083F31188BFF36F8FBFF34F8FFEE710BD0B
:1044B00080B5134C134F144D236873B9134B1B680D
:1044C000012BF8D94FF0E0234FF08052C3F8042DB0
:1044D000BFF34F8FBFF36F8FEDE700F05BFFFB681B
:1044E000DE68301DFFF7F2FB2B68013B2B60236871
:1044F000013B236000F06EFF3046FFF7BBFFDBE7B8
:104500006C0F0020700F0020540F0020C80F0020F7
:104510002DE9F0470D46DDE909949600324607463D
:10452000A521206B984601F071F9236B043E1E44CF
:1045300026F00706002D41D06B1E04F133020F3523
:1045400013F8011F02F8011F09B1AB42F8D1002393
:1045500084F84330089D4FF0000A372D28BF3725D7
:10456000201DE562E564C4F850A0FFF78AFBC5F1A1
:10457000380504F11800FFF784FB4C225146C4F8BB
:10458000A0A02461A561646284F8A4A004F1540091
:1045900001F03CF90B4B394603F16802A365D033B7
:1045A000E26530464246236600F0CEFE2060B9F157
:1045B000000F01D0C9F80040BDE8F08784F83450FE
:1045C000C8E700BF7020002070B586B0DDE90B544D
:1045D00045B94FF0500383F31188BFF36F8FBFF3DA
:1045E0004F8FFEE744B94FF0500383F31188BFF3B8
:1045F0006F8FBFF34F8FFEE7A8260596059EA82E66
:1046000008D04FF0500383F31188BFF36F8FBFF3CF
:104610004F8FFEE72563022584F8A55004AD019570
:104620000A9D02940095059EFFF772FF2046FFF752
:1046300057FE049806B070BD2DE9F043074685B0DB
:10464000900088461646994600F0D0FF054620B9EE
:104650004FF0FF3005B0BDE8F083A82000F0C6FFA2
:10466000044698B1002380F8A5300D9B05630193A3
:104670000C9B324641460290009338464B46FFF76A
:1046800047FF2046FFF72CFE0120E3E7284601F014
:1046900045F8DDE710B5002488B007AA06A905A8EB
:1046A000CDE90544FFF7CAFA059B079A0293069BDA
:1046B0001949CDE9004319482346FFF785FF40B368
:1046C00000F07CFC012819D14FF0500383F31188CE
:1046D000BFF36F8FBFF34F8F114B124A1B685433D8
:1046E00013604FF0FF32104B1A60104B1860104BE4
:1046F0001C6008B0BDE8104000F0CCBE013008D10D
:104700004FF0500383F31188BFF36F8FBFF34F8FC8
:10471000FEE708B010BD00BFE0700008B14400081B
:10472000281400202C000020340F0020480F002007
:10473000500F0020024A136801331360704700BF16
:10474000300F0020014B1868704700BF500F002049
:10475000404B2DE9F74F1B68002B73D13E4B1C6873
:1047600001341C60BCB93D4B1A68126842B14FF06D
:10477000500383F31188BFF36F8FBFF34F8FFEE7B2
:10478000374A1968106818601160364A1368013397
:104790001360FFF75DFE344D4FF0000B2B68334E76
:1047A0009C42334F12D214213A68D26A4A43B2581B
:1047B000022A304A28BF4FF0010B1268002A18BFA6
:1047C0004FF0010B584603B0BDE8F08FDFF88C9036
:1047D000DFF8A4A0D9F8002012681AB94FF0FF3210
:1047E0002A60E0E7D9F80020D268D2F80C80D8F827
:1047F00004108C4201D22960D5E708F10403184661
:104800000193FFF763FAD8F8281019B108F11800DE
:10481000FFF75CFA1423D8F82C00DAF8001088426D
:1048200088BFCAF8000008F1040103FB0060FFF72D
:104830002BFA3868D8F82C10C26A914228BF4FF082
:10484000010BC7E70D4A4FF0000B136801331360EB
:10485000B8E700BF300F0020500F00209C0F002051
:10486000980F00203C0F0020340F0020C80F0020BC
:1048700028140020400F00204C0F0020440F00207F
:104880002DE9F041304C236843B94FF0500383F3D6
:104890001188BFF36F8FBFF34F8FFEE700F07AFDF3
:1048A0002368013B236024682CB1002400F092FDB2
:1048B0002046BDE8F081254B1B68002BF5D0244D28
:1048C000244EDFF894801DE0EB68DC68271D04F1BE
:1048D0001800FFF7FBF93846FFF7F8F91420E36AF0
:1048E000326800FB03809342394688BF3360FFF78C
:1048F000CBF91A4BE26A1B68DB6A9A4202D30122A7
:10490000174B1A602B68002BDED10CB1FFF7A0FD0E
:10491000144D2C6844B10127114EFFF719FF00B167
:104920003760013CF9D12C600D4B1B68002BBCD0CB
:104930004FF0E0234FF08052C3F8042DBFF34F8FA8
:10494000BFF36F8F0124B1E7300F0020540F002018
:10495000840F00204C0F0020C80F002028140020D6
:10496000400F0020440F002008B550B94FF0E0235D
:104970004FF08052C3F8042DBFF34F8FBFF36F8FFA
:1049800008BD0A4B196841B14FF0500383F31188F9
:10499000BFF36F8FBFF34F8FFEE7FFF7CBFEFFF73D
:1049A0001FFDFFF76DFF0028E0D0E9E7300F002082
:1049B0001A4B70B51A681A4B12B101221A6070BDF9
:1049C0001426184D1A602A68174906FB02F3CC58C2
:1049D000C818B4B14468083364680B449C4208BFEB
:1049E0006368446008BF4360142303FB02114B68F3
:1049F000D9680E4B19602A601B680D4A5433136046
:104A0000DDE742B94FF0500383F31188BFF36F8F96
:104A1000BFF34F8FFEE7013AD7E700BF300F00200A
:104A2000400F00204C0F0020C80F00202814002049
:104A30002C00002010B50C4640B94FF0500383F312
:104A40001188BFF36F8FBFF34F8FFEE7054B1968D7
:104A50001831FFF724F92046BDE810400121FFF787
:104A6000BFBC00BF2814002038B50D46144640B91D
:104A70004FF0500383F31188BFF36F8FBFF34F8F55
:104A8000FEE7084B19681831FFF7FEF8002C2146A5
:104A900008BF2846BDE8384018BF4FF0FF30FFF789
:104AA0009FBC00BF2814002038B5C368DC6844B937
:104AB0004FF0500383F31188BFF36F8FBFF34F8F15
:104AC000FEE704F118052846FFF700F9104B1B68B4
:104AD000DBB9251D2846FFF7F9F80E4A14201168A6
:104AE000E36A8B42294688BF13600B4A00FB032010
:104AF000FFF7CAF8094BE26A1B68DB6A9A4285BF76
:104B00000120074B0020186038BD29460548EFE713
:104B1000300F00204C0F0020C80F00202814002068
:104B2000400F0020840F0020034B1B680360034BE1
:104B30001B684360704700BF3C0F0020500F0020EF
:104B400070B50C46054640B94FF0500383F3118809
:104B5000BFF36F8FBFF34F8FFEE741B94FF05003A4
:104B600083F31188BFF36F8FBFF34F8FFEE700F021
:104B700011FC0F4B196823685A1C10D00D482E6881
:104B800000686A68864201D08A420FD9881A834237
:104B90000AD95B1A134428462360FFF7C5FF002497
:104BA00000F018FC204670BD002323600124F7E7C5
:104BB000500F00203C0F00200122014B1A6070476B
:104BC000400F0020014B1868704700BF28140020D8
:104BD000054B1B6833B1054B1868B0FA80F04009EB
:104BE0004000704701207047480F0020300F002020
:104BF00038B508B9002038BD1B4B1C68844208D06A
:104C00004FF0500383F31188BFF36F8FBFF34F8FC3
:104C1000FEE7236D43B94FF0500383F31188BFF3D0
:104C20006F8FBFF34F8FFEE7E16AE26C013B914269
:104C30002365DFD0002BDDD1251D2846FFF746F880
:104C40001420E36CC3F13802A261084AE3621168E0
:104C50008B4288BF1360064A294600FB0320FFF7FA
:104C600013F80120C7E700BF281400204C0F0020D4
:104C7000C80F00202DE9F041224C1E4680460F4609
:104C8000154600F087FB236893F8A430022B18D058
:104C900001212268D2F8A03023EA0803C2F8A0302C
:104CA000236883F8A41066B13046FFF799FB4FF0F4
:104CB000E0234FF08052C3F8042DBFF34F8FBFF3B2
:104CC0006F8F00F087FB00F065FB1DB12368D3F800
:104CD000A0302B60236893F8A430022B03BF226816
:104CE0000125D2F8A030002504BFBB43C2F8A03094
:104CF0000022236883F8A42000F06CFB2846BDE85E
:104D0000F08100BF28140020F8B50D4616461F4656
:104D1000044640B94FF0500383F31188BFF36F8FFF
:104D2000BFF34F8FFEE700F035FB17B1D4F8A0308A
:104D30003B60022294F8A43084F8A420DBB2042E55
:104D400030D8DFE806F00803262C2A00D4F8A0208B
:104D50002A43C4F8A020012B41D1251D2846FEF787
:104D6000B5FF1420214AE36A11688B4288BF1360A3
:104D70001F4A294600FB0320FEF786FFA36AF3B112
:104D80004FF0500383F31188BFF36F8FBFF34F8F42
:104D9000FEE7D4F8A0200132DBE7022B24D0C4F8D0
:104DA000A050D8E7D4F8A0200132D4D04FF050035F
:104DB00083F31188BFF36F8FBFF34F8FFEE70D4B67
:104DC000E26A1B68DB6A9A4209D94FF0E0234FF090
:104DD0008052C3F8042DBFF34F8FBFF36F8F0124B0
:104DE00000F0F8FA2046F8BD0024F9E74C0F002047
:104DF000C80F0020281400202DE9F843DDF820809A
:104E00000D4616461F46044640B94FF0500383F343
:104E10001188BFF36F8FBFF34F8FFEE700F092FB57
:104E2000EFF311894FF0500383F31188BFF36F8FB5
:104E3000BFF34F8F17B1D4F8A0303B60022294F833
:104E4000A43084F8A420DBB2042E1FD8DFE806F0DB
:104E50000803151B1900D4F8A0202A43C4F8A02089
:104E6000012B42D1A36AF3B14FF0500383F31188B1
:104E7000BFF36F8FBFF34F8FFEE7D4F8A02001324E
:104E8000ECE7022B3AD0C4F8A050E9E7D4F8A02010
:104E90000132E5D04FF0500383F31188BFF36F8FD9
:104EA000BFF34F8FFEE7164B1B681BBB251D284623
:104EB000FEF70CFF134A14201168E36A8B4229465F
:104EC00088BF1360104A00FB0320FEF7DDFE0F4B86
:104ED000E26A1B68DB6A9A4207D90123B8F1000F26
:104EE00001D0C8F800300A4A1360012089F3118804
:104EF000BDE8F883074804F11801E6E70020F5E76C
:104F0000300F00204C0F0020C80F00202814002074
:104F1000400F0020840F0020914208B541600061DD
:104F20000AD8D21A83699A420DD2084B011D18681B
:104F3000FEF7B5FE002008BD9A4201D2994202D286
:104F4000034B011DF3E70120F5E700BF2815002002
:104F50002C150020F7B5114C00F01CFA2568BDB9DE
:104F60000F4F104E3846FEF781FE3046FEF77EFEAC
:104F70000D4B10211F600D4B0A201E600C4A0D4B7B
:104F80000095FEF77CFF206010B10B49FFF772F926
:104F900003B0BDE8F04000F01DBA00BF24150020AA
:104FA00044150020301500202C1500202815002065
:104FB0007C1400202C140020E570000810B588B087
:104FC000FFF7C8FF124B1B68B3B1002407AA06A95C
:104FD00005A8CDE90544FEF73DFE059B079A02931F
:104FE000069B0C49019302230B4800932346FFF7CD
:104FF000EBFA0A4B186040B94FF0500383F3118865
:10500000BFF36F8FBFF34F8FFEE7012008B010BDD5
:1050100024150020EA7000081D510008201500200A
:105020007FB5164604461A4640B94FF0500383F345
:105030001188BFF36F8FBFF34F8FFEE70D4D2868C8
:1050400080B10529CDE9001602940DDCFFF7C0FD03
:105050000023022818BF1A46694608BF089A286824
:10506000FEF75BFF04B070BD00236946FFF707F849
:10507000F8E700BF241500202DE9F3470646FFF7A7
:1050800061FBDFF88C800546D8F80030834209D9EF
:10509000204F3B681A686AB91F4A1168136039606B
:1050A000012300E0002328463360C8F8005002B016
:1050B000BDE8F087DB68DC68D3F8009004F1040AEF
:1050C0005046FEF703FE236A2046984794F828309E
:1050D0005B07DED5A3694B44994506D25146386833
:1050E00063602461FEF7DBFDD3E700234A461946DF
:1050F00020460093FFF794FF0028CAD14FF05003D9
:1051000083F31188BFF36F8FBFF34F8FFEE700BFAC
:105110001C1500202C150020281500202DE9F04337
:105120006E4D6F4E89B02B68D3F80080B8F1000F38
:1051300035D00024DB68D3F80080FFF7FBFA04A821
:10514000FFF79AFF049B8146002B69D1002C4CD1BC
:10515000404550D3FFF794FB2B68DB68DF68381DB0
:10516000FEF7B4FD97F8283058071AD5B9694346B9
:105170004A4638464144FFF7CFFEB0B12346424687
:10518000214638460094FFF74BFF70B94FF05003AB
:1051900083F31188BFF36F8FBFF34F8FFEE70124B6
:1051A000CBE723F0010387F8283038463B6A98475D
:1051B0000022306804A9FEF7BFFF0028B3D0049B8B
:1051C0000698002B2FDB069C6369002B32D103A8C5
:1051D000FFF752FF049B0246092BE9D8DFE803F0F2
:1051E0002E2E2E575E762E2E575E3E4B1B681C6869
:1051F000B4FA84F4640922463068A8EB0901FFF789
:105200004BF8FFF73DFB0028D2D14FF0E0234FF0E1
:105210008052C3F8042DBFF34F8FBFF36F8FC7E7E2
:10522000FFF72EFBC4E7059B07999847049B002BCB
:10523000BEDBC8E7201DFEF749FDC8E794F828301B
:10524000A16943F0010384F82830059B20461944E6
:10525000FFF762FE0028ABD0236A2046984794F8F7
:1052600028305907A4D50023A269059920460A448D
:1052700000931946FFF7D4FE002899D14FF0500350
:1052800083F31188BFF36F8FBFF34F8FFEE794F85E
:10529000283023F0010384F8283089E794F8283077
:1052A00043F0010384F828300599A16141B94FF01A
:1052B000500383F31188BFF36F8FBFF34F8FFEE767
:1052C000034601442046FFF727FE71E794F8283093
:1052D0009A07DED4204600F021FA69E72C15002059
:1052E000241500202815002006480068006880F377
:1052F000088862B661B6BFF34F8FBFF36F8F00DFD0
:1053000000BF000008ED00E0002382B001930D4BC8
:105310001B68013308D04FF0500383F31188BFF3AB
:105320006F8FBFF34F8FFEE74FF0500383F3118869
:10533000BFF36F8FBFF34F8F019B002BFCD002B0E8
:10534000704700BF280000204FF0807340F8043CF5
:10535000054B21F0010140F8081C40F80C3C40F8D6
:10536000202C4038704700BF09530008000000009F
:10537000074B19680868B0E8F00F80F30988BFF39D
:105380006F8F4FF0000080F311884EF00D0E7047C4
:10539000281400204FF0500383F31188BFF36F8F60
:1053A000BFF34F8F0A4A13680133012B13600ED1EC
:1053B0004FF0E023D3F8043DDBB243B14FF050038C
:1053C00083F31188BFF36F8FBFF34F8FFEE77047F2
:1053D00028000020084A136843B94FF0500383F3B4
:1053E0001188BFF36F8FBFF34F8FFEE7013B136050
:1053F0000BB983F3118870472800002000000000DB
:10540000EFF30980BFF36F8F0D4B1A6820E9F00F9F
:1054100010602DE908404FF0500080F31188FFF72D
:10542000C7FA4FF0000080F31188BDE80840196802
:105430000868B0E8F00F80F30988BFF36F8F7047FA
:105440002814002008B54FF0500383F31188BFF3F0
:105450006F8FBFF34F8FFFF77BF928B14FF0E02339
:105460004FF08052C3F8042D002383F3118808BD48
:105470004FF0E02200234FF47A7113619361044BE3
:105480001B68B3FBF1F3013B5361072313617047C2
:105490001C00002013B5274B1A78D2B20192FF22CC
:1054A0001A701B78244ADBB28DF803309DF8033064
:1054B00003F0500313700723204A13609DF8031074
:1054C000136809060AD4032B11D04FF0500383F35D
:1054D0001188BFF36F8FBFF34F8FFEE7013B13605F
:1054E0009DF803305B00DBB28DF80330E6E74FF444
:1054F00040731360019B0F4ADBB213704FF0E0233F
:105500000024D3F8202D42F47002C3F8202DD3F8E4
:10551000202D42F07042C3F8202DFFF7A9FF084B61
:105520001C60FFF7E1FEFFF743FA2046FFF7ECFEB1
:1055300002B010BD00E400E05C150020581500200A
:1055400028000020EFF305830F2B0ED9114A9B5C36
:10555000114A12789A4208D94FF0500383F3118808
:10556000BFF36F8FBFF34F8FFEE74FF0E0230B4A7F
:10557000D3F80C3D126803F4E063934208D94FF06E
:10558000500383F31188BFF36F8FBFF34F8FFEE794
:10559000704700BFF0E300E05C15002058150020C4
:1055A00010B5104B1A461B688342FBD3546811197F
:1055B000884201BF416810460919516044680119C9
:1055C0008B420CD1084909688B4203D059682144A9
:1055D000416019689042016018BF106010BD194603
:1055E000F8E700BF78150020741500202DE9F04180
:1055F0000446FFF79FF84249424D0B680BBB424AF5
:1056000056071FBFD01D20F0070002F52F62131AA6
:105610000CBF4FF42F630246002013443B4E083B5F
:1056200023F0070370603260C3E90000981AC2E9F2
:1056300000300B60364B1860364B18604FF000435B
:105640002B602E68264255D1002C46D004F1080369
:1056500060071CBF23F007030833002B4AD02D4FEF
:105660003C689C4246D3294A15686868984204D22F
:10567000D5F800C0BCF1000F15D10968A94239D096
:105680002968D2F800801160C21A102A12D9E818CD
:1056900041070BD04FF0500383F31188BFF36F8F96
:1056A000BFF34F8FFEE72A466546DEE742606B6038
:1056B000FFF776FF00236A681549A41A1643164AB5
:1056C00008682B601368844203F101033C6038BF13
:1056D0000C606E6008F108041360FFF7D1F86307EF
:1056E0000AD04FF0500383F31188BFF36F8FBFF3DD
:1056F0004F8FFEE70024F0E72046BDE8F08100BFB1
:1057000074150020601500208015002078150020F9
:105710006C150020701500206815002010B5044697
:1057200090B31A4A50F8043C1268134208D14FF063
:10573000500383F31188BFF36F8FBFF34F8FFEE7E2
:1057400050F8081C41B14FF0500383F31188BFF3A8
:105750006F8FBFF34F8FFEE723EA020340F8043C4C
:10576000FEF7E8FF0A4A54F8043C1168A4F1080067
:105770000B441360FFF714FFBDE81040054A13689F
:1057800001331360FFF77CB810BD00BF6015002027
:1057900070150020641500200EB46FF0004100B5B4
:1057A0009CB01DAB029006900791049108480949EE
:1057B00053F8042B0591006802A9019300F010FA38
:1057C0000022029B1A701CB05DF804EB03B0704716
:1057D0002C0000200802FFFF884210B501EB0204F4
:1057E00002D98442234607D8431EA14208D011F8AB
:1057F000012B03F8012FF8E7014602448A4200D149
:1058000010BD13F8014D02F8014DF7E703460244BD
:10581000934200D1704703F8011BF9E7294B70B59B
:105820001B68044683424BD0C369ABB1DB686BB1E4
:105830000025E369DB68595900293BD10435802DE7
:10584000F7D1E3692046D96800F078F8E369196870
:1058500011B1204600F072F8616911B1204600F0E4
:105860006DF8E16911B1204600F068F8216B11B1C3
:10587000204600F063F8616B11B1204600F05EF83D
:10588000A16B11B1204600F059F8A16C11B120466E
:1058900000F054F8616C11B1204600F04FF8E16A55
:1058A00011B1204600F04AF8236A4BB12046BDE80A
:1058B000704018470E68204600F040F83146BBE7BC
:1058C00070BD00BF2C000020014B1868704700BF5E
:1058D0002C00002070B500260C4D0D4C641BA4104C
:1058E000A64209D100F05EFC00260A4D0A4C641B5A
:1058F000A410A64205D170BD55F8043B9847013667
:10590000EEE755F8043B98470136F2E728710008A6
:1059100028710008287100082C7100087047704732
:105920000A44914200F1FF3300D1704710B511F8DD
:10593000014B914203F8014FF9D110BD38B505462E
:10594000002940D051F8043C0C1F002BB8BFE418CC
:1059500000F0DEF81C4A136833B96360146028460F
:10596000BDE8384000F0DAB8A34208D92068211811
:105970008B4201BF19685B6809182160EDE71A4680
:105980005B680BB1A342FAD911685018A0420BD141
:1059900020680144501883421160E0D118685B68A8
:1059A000084410605360DAE702D90C232B60D6E775
:1059B000206821188B4201BF19685B6809182160B3
:1059C00063605460CBE738BDB421002070B50F4E42
:1059D0000C463168054611B900F090FB3060214655
:1059E000284600F08BFB431C03D14FF0FF342046C8
:1059F00070BDC41C24F00304A042F8D0211A28462C
:105A000000F07CFB0130F2D1EFE700BFB0210020B5
:105A10002DE9F843CD1C25F0030508350C2D38BFC2
:105A20000C25002D064601DBA94204D90C23336066
:105A30000020BDE8F883DFF8D48000F069F8D8F8DA
:105A400000301C4644BB29463046FFF7BFFF431CCD
:105A5000044658D1D8F800402746002F43D1002CE7
:105A60004BD023683946304604EB030900F046FB6F
:105A7000814542D1216830466D1A2946FFF7A6FFBD
:105A800001303AD023682B442360D8F800305A689C
:105A900062BBC8F800700FE02268521B20D40B2AAA
:105AA00017D96119A342256018BF5960636808BF00
:105AB000C8F8001062514B60304600F02FF804F136
:105AC0000B00231D20F00700C21A1CBF1B1AA35095
:105AD000AFE76268A3420CBFC8F800205A60EBE74A
